:020000040800F2
:1000000000500020BD1600088D3F00088F3F0008FB
:10001000A9400008AB400008AD4000080000000007
:100020000000000000000000000000001927000888
:10003000AF4000080000000089270008C52700081D
:100040000517000805170008051700080517000820
:100050000517000805170008051700080517000810
:10006000051700080517000805170008B14000082B
:10007000B540000805170008B7400008BB4000085D
:10008000BF400008C3400008051700080517000816
:10009000051700080517000805170008C7400008E5
:1000A00005170008D14000080517000805170008CB
:1000B000051700080517000805170008ED4000089F
:1000C000F1400008F5400008F94000080517000855
:1000D000051700080517000805170008CB400008A1
:1000E00005170008051700080517000800000000A4
:1000F0000000000000000000000000000000000000
:0C01000000000000000000005FF808F1A3
:1001100081F0004102E000BF83F0004330B54FEAB8
:1001200041044FEA430594EA050F08BF90EA020F25
:100130001FBF54EA000C55EA020C7FEA645C7FEAB8
:10014000655C00F0E2804FEA5454D4EB5555B8BFDB
:100150006D420CDD2C4480EA020281EA030382EA4C
:10016000000083EA010180EA020281EA0303362DDE
:1001700088BF30BD11F0004F4FEA01314FF4801CB1
:100180004CEA113102D0404261EB410113F0004FC3
:100190004FEA03334CEA133302D0524263EB43037A
:1001A00094EA050F00F0A780A4F10104D5F1200E18
:1001B0000DDB02FA0EFC22FA05F2801841F1000173
:1001C00003FA0EF2801843FA05F359410EE0A5F147
:1001D00020050EF1200E012A03FA0EFC28BF4CF078
:1001E000020C43FA05F3C01851EBE37101F000452E
:1001F00007D54FF0000EDCF1000C7EEB00006EEB3B
:100200000101B1F5801F1BD3B1F5001F0CD34908C4
:100210005FEA30004FEA3C0C04F101044FEA44521B
:1002200012F5800F80F09A80BCF1004F08BF5FEAA2
:10023000500C50F1000041EB045141EA050130BD82
:100240005FEA4C0C404141EB010111F4801FA4F125
:100250000104E9D191F0000F04BF01460020B1FA7A
:1002600081F308BF2033A3F10B03B3F120020CDAB2
:100270000C3208DD02F1140CC2F10C0201FA0CF090
:1002800021FA02F10CE002F11402D8BFC2F1200CF5
:1002900001FA02F120FA0CFCDCBF41EA0C019040AB
:1002A000E41AA2BF01EB0451294330BD6FEA0404F4
:1002B0001F3C1CDA0C340EDC04F11404C4F12002DF
:1002C00020FA04F001FA02F340EA030021FA04F3F1
:1002D00045EA030130BDC4F10C04C4F1200220FA48
:1002E00002F001FA04F340EA0300294630BD21FA86
:1002F00004F0294630BD94F0000F83F4801306BF4C
:1003000081F480110134013D4EE77FEA645C18BF3F
:100310007FEA655C29D094EA050F08BF90EA020FD6
:1003200005D054EA000C04BF1946104630BD91EACE
:10033000030F1EBF0021002030BD5FEA545C05D1D1
:100340004000494128BF41F0004130BD14F5800410
:100350003CBF01F5801130BD01F0004545F0FE4184
:1003600041F470014FF0000030BD7FEA645C1ABFB9
:10037000194610467FEA655C1CBF0B46024650EAF0
:10038000013406BF52EA033591EA030F41F400211C
:1003900030BD00BF90F0000F04BF0021704730B5A2
:1003A0004FF4806404F132044FF000054FF0000177
:1003B00050E700BF90F0000F04BF0021704730B538
:1003C0004FF4806404F1320410F0004548BF40420D
:1003D0004FF000013EE700BF42004FEAE2014FEA62
:1003E00031014FEA02701FBF12F07F4393F07F4F3D
:1003F00081F06051704792F0000F14BF93F07F4F6F
:10040000704730B54FF4607401F0004521F00041B1
:1004100020E700BF50EA010208BF704730B54FF037
:1004200000050AE050EA010208BF704730B511F03C
:10043000004502D5404261EB41014FF4806404F174
:1004400032045FEA915C3FF4DCAE4FF003025FEAF6
:10045000DC0C18BF03325FEADC0C18BF033202EB7E
:10046000DC02C2F1200300FA03FC20FA02F001FAD8
:1004700003FE40EA0E0021FA02F11444C1E600BF77
:1004800070B54FF0FF0C4CF4E06C1CEA11541DBF2A
:100490001CEA135594EA0C0F95EA0C0F00F0DEF8F5
:1004A0002C4481EA030621EA4C5123EA4C5350EADA
:1004B000013518BF52EA033541F4801143F480132B
:1004C00038D0A0FB02CE4FF00005E1FB02E506F0BC
:1004D0000042E0FB03E54FF00006E1FB03569CF011
:1004E000000F18BF4EF0010EA4F1FF04B6F5007F17
:1004F00064F5407404D25FEA4E0E6D4146EB060689
:1005000042EAC62141EA55514FEAC52040EA5E5011
:100510004FEACE2EB4F1FD0C88BFBCF5E06F1ED8BB
:10052000BEF1004F08BF5FEA500E50F1000041EBF2
:10053000045170BD06F0004646EA010140EA02009F
:1005400081EA0301B4EB5C04C2BFD4EB0C0541EAC1
:10055000045170BD41F480114FF0000E013C00F3D6
:10056000AB8014F1360FDEBF002001F0004170BDFA
:10057000C4F10004203C35DA0C341BDC04F1140413
:10058000C4F1200500FA05F320FA04F001FA05F29F
:1005900040EA020001F0004221F0004110EBD3706C
:1005A00021FA04F642EB06015EEA430E08BF20EA98
:1005B000D37070BDC4F10C04C4F1200500FA04F33B
:1005C00020FA05F001FA04F240EA020001F00041CD
:1005D00010EBD37041F100015EEA430E08BF20EA40
:1005E000D37070BDC4F1200500FA05F24EEA020E88
:1005F00020FA04F301FA05F243EA020321FA04F0B7
:1006000001F0004121FA04F220EA020000EBD3706D
:100610005EEA430E08BF20EAD37070BD94F0000F6D
:100620000FD101F00046400041EB010111F4801FA1
:1006300008BF013CF7D041EA060195F0000F18BF52
:10064000704703F00046520043EB030313F4801F8E
:1006500008BF013DF7D043EA0603704794EA0C0F48
:100660000CEA135518BF95EA0C0F0CD050EA41065E
:1006700018BF52EA4306D1D181EA030101F00041DB
:100680004FF0000070BD50EA410606BF1046194603
:1006900052EA430619D094EA0C0F02D150EA01360F
:1006A00013D195EA0C0F05D152EA03361CBF104650
:1006B00019460AD181EA030101F0004141F0FE41EF
:1006C00041F470014FF0000070BD41F0FE4141F473
:1006D000780170BD70B54FF0FF0C4CF4E06C1CEA73
:1006E00011541DBF1CEA135594EA0C0F95EA0C0F28
:1006F00000F0A7F8A4EB050481EA030E52EA0335E3
:100700004FEA013100F088804FEA03334FF0805503
:1007100045EA131343EA12634FEA022245EA111530
:1007200045EA10654FEA00260EF000419D4208BFE1
:10073000964244F1FD0404F5407402D25B084FEA8E
:100740003202B61A65EB03055B084FEA32024FF43A
:1007500080104FF4002CB6EB020E75EB030E22BF97
:10076000B61A754640EA0C005B084FEA3202B6EB57
:10077000020E75EB030E22BFB61A754640EA5C0006
:100780005B084FEA3202B6EB020E75EB030E22BF96
:10079000B61A754640EA9C005B084FEA3202B6EB97
:1007A000020E75EB030E22BFB61A754640EADC0056
:1007B00055EA060E18D04FEA051545EA16754FEAB8
:1007C00006164FEAC30343EA52734FEAC2025FEAD6
:1007D0001C1CC0D111F4801F0BD141EA00014FF065
:1007E00000004FF0004CB6E711F4801F04BF014336
:1007F0000020B4F1FD0C88BFBCF5E06F3FF6AFAE52
:10080000B5EB030C04BFB6EB020C5FEA500C50F1E1
:10081000000041EB045170BD0EF0004E4EEA113164
:1008200014EB5C04C2BFD4EB0C0541EA045170BD6B
:1008300041F480114FF0000E013C90E645EA060EAF
:100840008DE60CEA135594EA0C0F08BF95EA0C0FDD
:100850003FF43BAF94EA0C0F0AD150EA01347FF425
:1008600034AF95EA0C0F7FF425AF104619462CE7FC
:1008700095EA0C0F06D152EA03353FF4FDAE10465F
:10088000194622E750EA410618BF52EA43067FF4B0
:10089000C5AE50EA41047FF40DAF52EA43057FF440
:1008A000EBAE12E74FF0FF3C06E000BF4FF0010C4B
:1008B00002E000BF4FF0010C4DF804CD4FEA410CAF
:1008C0007FEA6C5C4FEA430C18BF7FEA6C5C1BD07C
:1008D00001B050EA410C0CBF52EA430C91EA030FFD
:1008E00002BF90EA020F0020704710F1000F91EA5A
:1008F000030F58BF994208BF90422CBFD8176FEA28
:10090000E37040F0010070474FEA410C7FEA6C5CF5
:1009100002D150EA013C07D14FEA430C7FEA6C5CFC
:10092000D6D152EA033CD3D05DF8040B704700BF28
:100930008446104662468C461946634600E000BF76
:1009400001B5FFF7B7FF002848BF10F1000F01BD48
:100950004DF808EDFFF7F4FF0CBF012000205DF813
:1009600008FB00BF4DF808EDFFF7EAFF34BF012098
:1009700000205DF808FB00BF4DF808EDFFF7E0FF31
:1009800094BF012000205DF808FB00BF4DF808ED82
:10099000FFF7CEFF94BF012000205DF808FB00BFE9
:1009A0004DF808EDFFF7C4FF34BF012000205DF8CB
:1009B00008FB00BF4FEA410212F5001215D211D513
:1009C0006FF47873B3EB625212D94FEAC12343F04C
:1009D000004343EA505311F0004F23FA02F018BFCE
:1009E000404270474FF00000704750EA013005D197
:1009F00011F0004008BF6FF0004070474FF000005A
:100A0000704700BF4A0011D212F5001211D20DD565
:100A10006FF47873B3EB62520ED44FEAC12343F004
:100A2000004343EA505323FA02F070474FF00000AE
:100A3000704750EA013002D14FF0FF3070474FF05D
:100A4000000070474FEA4102B2F1E04324BFB3F522
:100A5000001CDCF1FE5C0DD901F0004C4FEAC00235
:100A60004CEA5070B2F1004F40EB830008BF20F019
:100A70000100704711F0804F21D113F13872BCBFD3
:100A800001F00040704741F480114FEA5252C2F128
:100A90001802C2F1200C10FA0CF320FA02F018BF71
:100AA00040F001004FEAC1234FEAD32303FA0CFCC4
:100AB00040EA0C0023FA02F34FEA4303CCE77FEA53
:100AC000625307D150EA01331EBF4FF0FE4040F49D
:100AD0004000704701F0004040F0FE4040F400004C
:100AE000704700BF80F0004002E000BF81F000418D
:100AF00042001FBF5FEA410392EA030F7FEA226CC4
:100B00007FEA236C6AD04FEA1262D2EB1363C1BF53
:100B1000D218414048404140B8BF5B42192B88BFC2
:100B2000704710F0004F40F4000020F07F4018BFE5
:100B3000404211F0004F41F4000121F07F4118BF05
:100B4000494292EA030F3FD0A2F1010241FA03FCAD
:100B500010EB0C00C3F1200301FA03F100F0004395
:100B600002D5494260EB4000B0F5000F13D3B0F15D
:100B7000807F06D340084FEA310102F10102FE2ACC
:100B800051D2B1F1004F40EBC25008BF20F001003C
:100B900040EA03007047490040EB000010F4000FEA
:100BA000A2F10102EDD1B0FA80FCACF1080CB2EB7D
:100BB0000C0200FA0CF0AABF00EBC25052421843DC
:100BC000BCBFD0401843704792F0000F81F4000181
:100BD00006BF80F400000132013BB5E74FEA410354
:100BE0007FEA226C18BF7FEA236C21D092EA030FC0
:100BF00004D092F0000F08BF0846704790EA010F3A
:100C00001CBF0020704712F07F4F04D1400028BF66
:100C100040F00040704712F100723CBF00F5000048
:100C2000704700F0004343F0FE4040F4000070477E
:100C30007FEA226216BF08467FEA2363014642022A
:100C400006BF5FEA412390EA010F40F4800070473D
:100C50004FF0000304E000BF10F0004348BF4042E3
:100C60005FEA000C08BF704743F0964301464FF01F
:100C700000001CE050EA010208BF70474FF000037B
:100C80000AE000BF50EA010208BF704711F00043BC
:100C900002D5404261EB41015FEA010C02BF84468C
:100CA0000146002043F0B64308BFA3F18053A3F5EB
:100CB0000003BCFA8CF2083AA3EBC25310DB01FA32
:100CC00002FC634400FA02FCC2F12002BCF1004FB6
:100CD00020FA02F243EB020008BF20F00100704747
:100CE00002F1200201FA02FCC2F1200250EA4C009B
:100CF00021FA02F243EB020008BF20EADC707047E1
:100D00004FF0FF0C1CEAD0521EBF1CEAD15392EAEE
:100D10000C0F93EA0C0F6FD01A4480EA010C4002CA
:100D200018BF5FEA41211ED04FF0006343EA501024
:100D300043EA5111A0FB01310CF00040B1F5000F66
:100D40003EBF490041EAD3715B0040EA010062F115
:100D50007F02FD2A1DD8B3F1004F40EBC25008BFFF
:100D600020F00100704790F0000F0CF0004C08BF1D
:100D700049024CEA502040EA51207F3AC2BFD2F1EA
:100D8000FF0340EAC250704740F400004FF00003F8
:100D9000013A5DDC12F1190FDCBF00F00040704732
:100DA000C2F10002410021FA02F1C2F1200200FA70
:100DB00002FC5FEA310040F1000053EA4C0308BF37
:100DC00020EADC70704792F0000F00F0004C02BF88
:100DD000400010F4000F013AF9D040EA0C0093F003
:100DE000000F01F0004C02BF490011F4000F013B5D
:100DF000F9D041EA0C018FE70CEAD15392EA0C0FCB
:100E000018BF93EA0C0F0AD030F0004C18BF31F035
:100E1000004CD8D180EA010000F00040704790F00B
:100E2000000F17BF90F0004F084691F0000F91F0AF
:100E3000004F14D092EA0C0F01D142020FD193EA75
:100E40000C0F03D14B0218BF084608D180EA0100FD
:100E500000F0004040F0FE4040F40000704740F0D9
:100E6000FE4040F4400070474FF0FF0C1CEAD052A7
:100E70001EBF1CEAD15392EA0C0F93EA0C0F69D003
:100E8000A2EB030280EA010C49024FEA402037D06E
:100E90004FF0805343EA111143EA10130CF0004065
:100EA0008B4238BF5B0042F17D024FF4000C8B4255
:100EB00024BF5B1A40EA0C00B3EB510F24BFA3EB35
:100EC000510340EA5C00B3EB910F24BFA3EB910305
:100ED00040EA9C00B3EBD10F24BFA3EBD10340EA5F
:100EE000DC001B0118BF5FEA1C1CE0D1FD2A3FF6A5
:100EF00050AF8B4240EBC25008BF20F0010070475A
:100F00000CF0004C4CEA50207F32C2BFD2F1FF03FC
:100F100040EAC250704740F400004FF00003013A2D
:100F200037E792F0000F00F0004C02BF400010F4D1
:100F3000000F013AF9D040EA0C0093F0000F01F0E5
:100F4000004C02BF490011F4000F013BF9D041EA07
:100F50000C0195E70CEAD15392EA0C0F08D142023A
:100F60007FF47DAF93EA0C0F7FF470AF084676E70D
:100F700093EA0C0F04D14B023FF44CAF08466EE7E6
:100F800030F0004C18BF31F0004CCAD130F00042B4
:100F90007FF45CAF31F000437FF43CAF5FE700BF0C
:100FA0004FF0FF3C06E000BF4FF0010C02E000BF35
:100FB0004FF0010C4DF804CD4FEA40024FEA4103D7
:100FC0007FEA226C18BF7FEA236C11D001B052EA8D
:100FD000530C18BF90EA010F58BFB2EB030088BF53
:100FE000C81738BF6FEAE17018BF40F001007047C2
:100FF0007FEA226C02D15FEA402C05D17FEA236CA4
:10100000E4D15FEA412CE1D05DF8040B704700BFEA
:10101000844608466146FFE70FB5FFF7C9FF002881
:1010200048BF10F1000F0FBD4DF808EDFFF7F4FFBA
:101030000CBF012000205DF808FB00BF4DF808ED53
:10104000FFF7EAFF34BF012000205DF808FB00BF76
:101050004DF808EDFFF7E0FF94BF012000205DF898
:1010600008FB00BF4DF808EDFFF7D2FF94BF012049
:1010700000205DF808FB00BF4DF808EDFFF7C8FF42
:1010800034BF012000205DF808FB00BF4FEA40029A
:10109000B2F1FE4F0FD34FF09E03B3EB12620DD9A6
:1010A0004FEA002343F0004310F0004F23FA02F010
:1010B00018BF404270474FF00000704712F1610FB7
:1010C00001D1420205D110F0004008BF6FF000408E
:1010D00070474FF00000704773B96AB9002908BF24
:1010E0000028BCBF00204FF00041C4BF6FF000419A
:1010F0004FF0FF3000F03CB882B0EC462DE90050D4
:1011000000F006F8DDF804E002B00CBC704700BF48
:101110002DE9F0411646984604460D4600F02AF89F
:1011200006FB01FCA6FB002300FB08C7FB18A21A64
:1011300065EB0303069CC4E90023BDE8F08100BF12
:101140002DE9F041904606460F461D4600F070F925
:1011500000FB05F3A0FB084508FB0138069B45444E
:10116000341B67EB0505C3E90045BDE8F08100BF0E
:10117000704700BF00292DE9F00F1D46C0F29D8089
:101180000024002DC0F2948080460F4694461E46EF
:10119000E3BB8A4255D9B2FA82F747B1C7F12005BD
:1011A00020FA05F601FA07F1BA40B8403143170CAE
:1011B000B1FBF7F61FFA82FC07FB16110CFB06F5D4
:1011C000030C43EA01439D4208D9711E9B1880F02D
:1011D00013819D4240F21081023E9B18591BB1FBC6
:1011E000F7F507FB15130CFB05FC80B240EA034141
:1011F0008C4507D96B1E8A1880F00081944540F217
:10120000FD80023D45EA0641002503E08B420CD9F2
:10121000002529460A462B4614B1524263EB43038C
:1012200010461946BDE8F00F7047B3FA83F5002D5C
:1012300040F087808B4201D38242EAD80025012109
:10124000E8E712B90126B6FBF2F2B2FA82F6002EF6
:1012500039D18E1A130C1FFA82FC0125B6FBF3F765
:1012600003FB17610CFB07F84FEA104949EA0146F6
:10127000B04506D9791EB61802D2B04500F2D38027
:101280000F46C8EB0606B6FBF3F103FB11630CFB3C
:1012900001FC80B240EA03439C4506D94E1E9A18D1
:1012A00002D2944500F2C280314641EA0741B1E7DB
:1012B000E443524263EB430366E7404261EB410182
:1012C0004FF0FF345DE7B240C6F1200921FA09F77B
:1012D00020FA09F901FA06F1130CB7FBF3F81FFA2B
:1012E00082FC03FB18770CFB08F549EA01094FEA79
:1012F000194141EA0747B040BD420AD9BF1808F179
:10130000FF3680F08E80BD4240F28B80A8F102084B
:10131000BF18791BB1FBF3F503FB15170CFB05F6A2
:101320001FFA89F949EA07418E4206D96F1E8918CA
:1013300071D28E426FD9023D89188E1B45EA08454D
:101340008CE7C5F1200122FA01F306FA05F627FA27
:1013500001F207FA05F720FA01F11E434FEA164998
:10136000B2FBF9F81FFA86FA09FB18220AFB08FB00
:101370000F433B0C43EA024293450CFA05FC08D9A3
:10138000921908F1FF314AD2934548D9A8F10208D1
:101390009219CBEB0203B3FBF9F109FB11320AFB03
:1013A00001FABFB247EA02439A4506D94A1E9B1981
:1013B00033D29A4531D902399B1941EA08410F0CC1
:1013C0001FFA8CF808FB07F68AB24FEA1C4C08FBA0
:1013D00002F80CFB02620CFB07FC02EB184296427F
:1013E00088BF0CF5803CCAEB03030CEB124C634541
:1013F0000ED305D000250DE70E46EFE61D4601E7AA
:1014000000FA05F01FFA88F808EB0245A842F1D26D
:1014100001390025FEE63D468FE71146CDE78846B7
:10142000B7E7B04675E7023FB6182AE702393CE74E
:101430002DE9F007144605460E46002B3DD18A42A1
:1014400049D9B2FA82F747B1C7F1200120FA01F277
:1014500006FA07F6BC40BD401643220CB6FBF2F07C
:10146000A1B202FB106601FB00F32F0C47EA06460F
:10147000B34208D9471E361980F0FA80B34240F2D1
:10148000F78002383619F61AB6FBF2F302FB136244
:1014900001FB03F1ADB245EA0242914207D95E1E5B
:1014A000121980F0E780914240F2E480023B43EA67
:1014B00000400021BDE8F00770478B4243D8B3FAE3
:1014C00083F4002C42D18B4202D3824200F2E180AD
:1014D00000210120EEE712B90127B7FBF2F4B4FABC
:1014E00084F2002A40F089800A1B230CA7B2012154
:1014F000B2FBF3F603FB162207FB06F04FEA154C8E
:101500004CEA0242904207D9121906F1FF3C02D27E
:10151000904200F2D0806646121AB2FBF3F003FB51
:10152000102307FB00F7ADB245EA03439F4207D9FA
:10153000421E1B1980F0A0809F4240F29D8002381D
:1015400040EA0640B6E700210846B3E7C4F12006AA
:1015500022FA06F703FA04F321FA06F501FA04F178
:1015600020FA06F63B434FEA134CB5FBFCF71FFA93
:1015700083F80CFB175508FB07F946EA010A4FEA06
:101580001A4141EA0545A94502FA04F204D97E1E32
:10159000ED18C0F081803746C9EB0501B1FBFCF6C0
:1015A0000CFB161508FB06F81FFA8AFA4AEA0541F1
:1015B000884503D9751EC91874D32E4646EA0746D6
:1015C000370C1FFA82FC0CFB07F5120CB3B20CFBB4
:1015D00003FC02FB035302FB07F203EB1C439D4297
:1015E00088BF02F58032C8EB010102EB1342914241
:1015F0004CD343D0304600215CE79440C2F1200533
:1016000021FA05F620FA05F501FA02F1230CB6FBE2
:10161000F3FCA7B203FB1C6607FB0CF829430D0C77
:1016200045EA0646B04500FA02F508D936190CF12C
:10163000FF303ED2B0453CD9ACF1020C3619C8EBB4
:101640000602B2FBF3F003FB102607FB00F889B299
:1016500041EA0642904506D9461E121927D2904506
:1016600025D902381219C8EB020240EA0C413FE7C3
:10167000384608E733461AE7104661E700FA04F0F7
:101680001FFA8CFC0CEB03439842B3D2701E00216E
:1016900010E7214620460DE7A9457FF67CAF023FC3
:1016A000ED1879E7884588D9023EC91886E73046A3
:1016B000D9E78446C3E7023E12192DE7002100F066
:1016C00004B80B4B5B58435004310A480A4B42188C
:1016D0009A42FFF4F6AF094A00F003B8002342F83B
:1016E000043B074B9A42FFF4F9AF01F001FF70474A
:1016F00030BF000800000020A0010020A001002051
:10170000C04C0020FFF7FEBF00F108034FF0FF328E
:10171000002182604360C360036101607047002361
:101720000361704743685A684A6042688A605A6831
:10173000916059604160086101684B1C036070470B
:1017400010B50A68531C01D1036907E000F10803D2
:101750005C682468944201D85B68F9E75A684A607B
:1017600091608B605960086101684B1C036010BD7B
:10177000436882689A60816843684B6001694A687F
:10178000824204BF82684A60002303610868421EE7
:101790000A6008687047FEE710B50E4B04461A68E9
:1017A00050600D4801688C4207D20C4A10681B68D3
:1017B000191DBDE81040FFF7C3BF094A10681B6838
:1017C000191DFFF7BDFF074801688C4238BF046050
:1017D00010BD00BF2C02002044020020480200205F
:1017E000A4010020000000202DE9F84F8346482086
:1017F000884617469A460A9E0C9D00F00BFF044649
:10180000002800F090801DB9B80000F003FF0546E5
:1018100025631DB9204600F053FF84E0BA00284636
:10182000A52109F007FB236B013F03EB870041462D
:101830000A22042E34BF3546042520F0070900276C
:1018400004F1340004F1040809F0BAFB404684F8BE
:101850003D70E5622564FFF762FF04F11800FFF7B1
:101860005EFFC5F10501A1615246246164626764AF
:101870004846594600F044FF0B9A206002B11460BC
:1018800000F06AFF2A482B4903685D1C05600D685B
:10189000E5B90C600168012920D12748142707FB0E
:1018A00005000135FFF730FF052DF6D1234F244DFC
:1018B0003846FFF729FF2846FFF726FF2148FFF7A4
:1018C00023FF214B214A1F60156007E0204A106862
:1018D00020B90B68DA6AB24298BF0C601D48E36A0F
:1018E00001681D4A8B4288BF03601068411C11606B
:1018F0001A4A1068834288BF13600F4A142101FB03
:1019000003204146FFF70EFF00F034FF104B18682C
:1019100030B108490A68D36AB34201D200F00CFF23
:101920000120BDE8F88F4FF0FF30BDE8F88F00BF11
:101930006C0200202C020020C8010020540200206C
:10194000B401002030020020A40100204802002041
:10195000A801002070020020500200204C0200204C
:1019600030B5002485B0642200940194029403945D
:101970000C480D492346FFF737FF01280FD100F02F
:10198000FBFC012805460AD100F0DEFE074B0848A3
:101990001D60046005B0BDE8304000F02FBF05B009
:1019A00030BD00BF97170008DDB00008A801002077
:1019B00044020020024B1A68501C1860704700BF98
:1019C000AC01002010B500F0C7FE034B1C6800F00E
:1019D000D1FE204610BD00BF4402002038B52B4B7D
:1019E000186800284CD12A4801684A1C0260036824
:1019F000ABB9284B284A1968106818601160274A4B
:101A00001168481C10601A682548116811B94FF018
:101A1000FF3303E01B68DA68D1684B6803601C4839
:101A20001F4902680B689A422ED31A48026811684F
:101A300019B94FF0FF331A4925E00468144AE368E6
:101A4000DC6811686068814202D2154B186038BDAD
:101A5000251D2846FFF78CFEA36A1BB104F1180070
:101A6000FFF786FE0F48E36A0268934288BF03606F
:101A70000D48142101FB03002946FFF753FED4E76C
:101A80000A490A68531C0B6038BD00BFAC01002036
:101A900044020020A401002048020020B0010020E0
:101AA000000000204C020020C8010020A0010020FE
:101AB00070B500F051FE264B1A68501E18601D6864
:101AC0000DB100243FE023490C68002CF9D0224BD3
:101AD0001A68F2B1DE68F468261D04F11800FFF7F9
:101AE00047FE3046FFF744FE1C48E36A01681C4A83
:101AF0008B4288BF0360142000FB03203146FFF7B0
:101B000011FE184BE46A1968C86A844228BF01258F
:101B1000DDE71548016841B1134C22683AB1FFF77F
:101B20005DFF23685A1E2260F6E7012D06D10F499A
:101B300000200860012400F0FFFD04E00B4C236846
:101B4000012BBED1F3E700F015FE204670BD00BFAB
:101B5000AC0100206C020020300200204C0200206A
:101B6000C80100202C020020A001002068020020F3
:101B700010B5044618B9BDE8104000F0DDBDFFF710
:101B800019FF084B084918680A682418101DFFF748
:101B9000EFFD2046FFF700FEFFF78AFF0028EAD09E
:101BA00010BD00BF440200202C02002038B50C46B6
:101BB0000546FFF7FFFE134A2B681168E4189942A7
:101BC00002D29C4208D201E09C4207D310688442B2
:101BD00094BF0020012002E0002000E001202C60E2
:101BE00038B1094B1A68101DFFF7C2FD2046FFF7F8
:101BF000D3FDFFF75DFF18B9BDE8384000F09CBD8C
:101C000038BD00BF440200202C02002038B50D462C
:101C100010B9054B1C6800E0044600F09DFD6564AA
:101C2000BDE8384000F0A6BD2C02002008B51A4BD4
:101C3000186818B1194A0120106008BD184B1968BE
:101C40001A680868116B884204D81868196834311A
:101C500004F086F9134A14231068134958430858AE
:101C600018B91368591E1160F4E7126803FB0213D8
:101C7000596803F1080248685860904204BF406800
:101C800058605B680648D96801600268506CBDE81E
:101C9000084004F06FB900BFAC01002068020020CA
:101CA0002C0200204C020020C801002038B5084C4E
:101CB0000D4621681831FFF743FD20680430FFF717
:101CC00057FD044B19686818BDE83840FFF764BD3C
:101CD0002C0200204402002038B5084C0D46216833
:101CE0001831FFF71FFD20680430FFF741FD044B5A
:101CF00019686818BDE83840FFF74EBD2C02002077
:101D00004402002038B5C368DC6804F11805284691
:101D1000FFF72EFD0F48016871B9251D2846FFF712
:101D200027FD0D4AE36A1068834288BF13600B4A9F
:101D3000142101FB032000E009482946FFF7F2FCCB
:101D4000084BE06A1968CA6A904234BF002001203B
:101D500038BD00BFAC0100204C020020C8010020AB
:101D6000300200202C020020034B044A196813683B
:101D700001604360704700BFB001002044020020B2
:101D800038B504460D4600F0E7FC0F4B20681A6892
:101D90000E4B824203D01968626891420FD21868D4
:101DA00062682B68811A994209D208480168204666
:101DB000521AD3182B60FFF7D7FF002400E001244C
:101DC00000F0D8FC204638BDB001002044020020BD
:101DD000014B01221A60704768020020014B18680D
:101DE000704700BF2C020020044B186828B104483B
:101DF0000168002914BF022001207047A8010020BB
:101E0000AC01002070B50446002829D0154DC36AE6
:101E10002A68D06A834223D22968CA6A1421C2F18F
:101E20000500114AA06101FB03236069984214D1A7
:101E3000261D3046FFF79CFC2B680C48DB6A0168C6
:101E4000094A8B4288BF0360142000FB03203146FF
:101E5000E362BDE87040FFF765BC2968CA6AE262C8
:101E600070BD00BF2C020020C80100204C020020E1
:101E700038B50446D0B1C26A036C9A4216D0051D2B
:101E80002846FFF775FC0A4A236C1168C3F1050068
:101E90008B4288BF1360074AA061142000FB032017
:101EA0002946E362BDE83840FFF73CBC38BD00BFBF
:101EB0004C020020C801002010B5044600F04CFC84
:101EC000A36C002B0CDD606A50B104F12400FFF715
:101ED00019FF08B1FFF77CFFA36C581EA064EFE761
:101EE0004FF0FF31A16400F045FC00F035FC626C5E
:101EF000002A0CDD236953B104F11000FFF702FF43
:101F000008B1FFF765FF616C4A1E6264EFE74FF0AE
:101F1000FF306064BDE8104000F02CBC70B5046870
:101F200003466CB1C568026C4668AD18B542C56021
:101F300028BFC4600846D968BDE8704008F0CCBE30
:101F400070BD38B51346026C044632B9056805BB4E
:101F50004068FFF78DFF65601BE063B9806808F09B
:101F6000BBFEA068216C626843189342A36010D343
:101F70002068A0600DE0C06808F0AEFE206CE2684A
:101F800043422168D0188842E06002D26268D318C8
:101F9000E360A16B4B1CA36338BD38B504460D4606
:101FA00000F0DAFB2368226CE06BA36000FB0231D7
:101FB000013802FB003361604FF0FF320021A16362
:101FC000E3606264A26455B9216981B104F1100033
:101FD000FFF798FE01280AD100F0AEFB07E004F1FC
:101FE0001000FFF791FB04F12400FFF78DFB00F0D8
:101FF000C1FB012038BDF8B50F46054608B90020E1
:10200000F8BD4C2000F006FB04460028F7D005FB85
:1020100007F0013000F0FEFA0646206038B1E563B3
:10202000276420460121FFF7B8FF2046F8BD20466F
:1020300000F046FBE3E72DE9FF4104460F4601921D
:102040009846002500F088FBA26BE36B9A4212D2FF
:10205000204639464246FFF774FF606A38B104F102
:102060002400FFF74FFE012801D100F065FB00F0CE
:1020700081FB012043E0019E16B900F07BFB3DE0AF
:1020800015B902A8FFF770FE00F074FBFFF792FC91
:1020900000F062FB606C431C01D100216164A26C02
:1020A000531C01D10023A36400F064FB02A801A922
:1020B000FFF766FEE8B900F04FFBA66BE56B00F09A
:1020C00059FBAE420FD104F110000199FFF7EEFD6C
:1020D0002046FFF7F1FEFFF7EBFC08B10125B1E761
:1020E00000F02AFBFAE72046FFF7E6FEFFF7E0FCE8
:1020F000F4E72046FFF7E0FEFFF7DAFC002004B02B
:10210000BDE8F08138B54C2000F084FA0446D0B127
:1021100000250123C363456005608560C560856354
:1021200005644FF0FF306064A06404F11000FFF715
:10213000EBFA04F12400FFF7E7FA204629462A4685
:102140002B46FFF778FF204638BD2DE9F0410446C5
:1021500098460F46154600F0F7FAA36B0646E06B6B
:10216000834217D2394620464246FFF7EAFEA16C69
:102170004B1C0AD1606A58B104F12400FFF7C2FD7C
:1021800030B12DB101242C6005E0A26C531CA36476
:10219000012400E00024304600F0E8FA2046BDE8C3
:1021A000F0812DE9FF4104460F4601929846002533
:1021B00000F0D2FAA36B3BB320463946E568FFF73F
:1021C000ADFEB8F1000F12D1A26B2068531EA363BD
:1021D00010B9FFF703FE6060216989B104F11000B6
:1021E000FFF790FD01280BD100F0A6FA08E0616A24
:1021F000E56029B104F12400FFF784FD0028F3D144
:1022000000F0B8FA01204AE0019E16B900F0B2FAD7
:1022100044E015B902A8FFF7A7FD00F0ABFAFFF7FD
:10222000C9FB00F099FA606C431C01D10021616484
:10223000A26C531C01D10023A36400F09BFA02A8F6
:1022400001A9FFF79DFD20BB00F086FAA56B00F009
:1022500091FAC5B9206830B900F07EFA6068FFF7DE
:10226000D1FD00F087FA04F124000199FFF71EFD6B
:102270002046FFF721FEFFF71BFC08B1012597E779
:1022800000F05AFAFAE72046FFF716FEFFF710FCB7
:10229000F4E72046FFF710FEFFF70AFC002004B029
:1022A000BDE8F08110B5044600F056FAA46B00F0CA
:1022B00061FA204610BD38B504460D4600F04CFAD0
:1022C000636C013301D100206064A16C4B1C01D10F
:1022D0000022A26400F04EFAA36B23B904F124009B
:1022E0002946FFF7F9FC2046BDE83840FFF7E4BD7A
:1022F000F8B50D4C00F030FA25688DB90B4F0C4E37
:102300003846FFF701FA3046FFF7FEF909480A4B55
:1023100006600C2114202A461F60FFF76CFE206027
:10232000BDE8F84000F026BAA40200207C0200209C
:1023300090020020A80200207402002010B59142F3
:1023400004464160206105D88169D21A8A420CD2C4
:10235000074B04E09A4201D2994206D2054B186815
:10236000211DFFF7EDF9002010BD012010BD00BFB9
:10237000A8020020740200201FB5FFF7B9FF084B28
:102380001868002348B101228DE80C0002930393E2
:10239000044805496422FFF727FA05B000BD00BFD5
:1023A000A40200208D240008E2B000082DE9F041CD
:1023B000804617461E460D4609B9002411E0282024
:1023C00000F028F904460028F7D0FFF791FF069B9C
:1023D000C4F80080A561E76126626362201DFFF7F3
:1023E0009EF92046BDE8F0817FB50F4D064628686E
:1023F0001C46B0B10191029203966BB9FFF7F4FC51
:10240000012818BF2246286801A906BF089A23465A
:102410001346FFF710FE04E01A4601A90023FFF758
:1024200094FE04B070BD00BFA4020020F7B5154EA5
:1024300033681A6802B3DC682568DF68FC68271D0A
:102440003846FFF795F9636A20469847E269012A02
:10245000EDD1A0692918A94206D9616024613068CC
:102460003946FFF76DF9E2E70021009120462A4640
:102470000B46FFF7B9FFDAE70348016803603160F4
:10248000FEBD00BF74020020A8020020F0B587B096
:10249000494B18680768D7F1010738BF002717B9FB
:1024A000C1680D6800E00025FFF784FAFFF78AFA9B
:1024B000424C06462268904203D2FFF7B7FF012341
:1024C00000E000232660002B2DD10FBBB5421FD8A2
:1024D000FFF7EEFA38490C68E268D468201DFFF770
:1024E00047F9E369012B0FD1A169204669183246EB
:1024F0002B46FFF723FF012806D1009720463946D7
:102500002A463B46FFF770FF676A2046B84723E03C
:102510002B48A91B0068FFF7CEFEFFF7C9FAD8B910
:1025200000F00AF918E0FFF7C3FA15E0059C6669A8
:1025300016B1201DFFF71CF9FFF744FA1F4D07469F
:102540002868874201D2FFF771FF039E2F60022E99
:1025500025D0032E2CD04EB1194D0022286803A996
:102560001346FFF71EFE0028E0D191E7A269049B05
:10257000204699183A46FFF7E1FE0128ECD1636A3C
:1025800020469847E1690129E6D1A7692046049CC5
:10259000009631463A193346FFF726FFDCE7049DE3
:1025A0002046A56179193A463B46FFF7C7FED3E7B7
:1025B000204600F085F8CFE7740200207802002062
:1025C000A4020020006A704710B5104B1A688242BE
:1025D00001D21346FAE759685C18844203D1406877
:1025E00041185960184641684418944208D1084C73
:1025F0002468A24204D05268511841601A681268D7
:102600008342026018BF186010BD00BFB0020020F6
:10261000AC02002070B50446FFF7CCF924480168ED
:1026200091B9244B244A23F0070606F56A535960F2
:1026300019605160214903604FF46A501660706060
:1026400033600E68103E0E602CB1103463071CBF5F
:1026500024F007040834621E43F68E239A4222D8DF
:10266000154B1D686868A04204D3114E326895422C
:1026700006D118E029680029F7D02B460D46F1E76E
:1026800028681E6818606B681036191B202904D949
:10269000281941606C60FFF797FF08486B68026873
:1026A000D11A016000E00026FFF702FA304670BD43
:1026B000AC020020C0020020B00200200400002074
:1026C00010B5044678B1FFF775F9074B54F80C1CA8
:1026D0001A6888181860A4F11000FFF775FFBDE8AC
:1026E0001040FFF7E5B910BD040000200348006862
:1026F000006880F3088862B600DF00BF08ED00E0E4
:102700004FF0807300E90A00002340F80C3C40F8C9
:10271000202C403870470000064B19680868B0E864
:10272000F00F80F309884FF0000080F311884EF01D
:102730000D0E70472C020020024B4FF080521A60A1
:10274000704700BF04ED00E0EFF311804FF08F0100
:1027500081F311887047002008B5FFF7F5FF024BA1
:102760001A68501C186008BD0800002080F311880A
:1027700070470000034B18680138186008B9FFF76C
:10278000F5BF704708000020EFF309800C4B1A6872
:1027900020E9F00F10602DE908404FF08F0080F322
:1027A0001188FFF743FA4FF0000080F31188BDE86D
:1027B000084019680868B0E8F00F80F3098870478E
:1027C0002C02002008B5064B4FF080521A60FFF72C
:1027D000BBFFFFF703F90020BDE80840FFF7C6BFC5
:1027E00004ED00E0034B044A07201A6043F8040C90
:1027F000704700BF14E000E03F19010010B5094B1D
:102800001A6842F47F001860196841F07F441C6028
:10281000FFF7E8FF044B00241C60FFF767FF20462A
:1028200010BD00BF20ED00E00800002040F0BF60B8
:10283000024B40F40031D960704700BF00ED00E06A
:1028400010B5C37803B3164CE168CB43C3F302243D
:102850004178C4F1040201FA02F10F2222FA04F2D3
:102860008478037822400A43110103F16043CAB21D
:1028700003F5614181F800230078012200F01F0375
:10288000410902FA03F007E00078012200F01F037B
:10289000410902FA03F02031024B43F8210010BD38
:1028A00000ED00E000E100E008B5134B984207D1CD
:1028B0004FF40070012100F03BFC4FF4007014E075
:1028C0000E49884207D14FF48060012100F030FCAE
:1028D0004FF4806009E00A4A90420BD14FF4004067
:1028E000012100F025FC4FF400400021BDE8084024
:1028F00000F01EBC08BD00BF0024014000280140BC
:10290000003C014010B5426822F470230A6823F4A9
:10291000807444EA02030C7943EA04224260CB68E3
:102920008A6884681A43084B234013434A7943EA70
:1029300042038360097CC26A4B1E22F47002D9B242
:1029400042EA0152C26210BDFDF7F1FF836811B186
:1029500043F0010101E023F00101816070478368C9
:1029600011B143F4807101E023F4807181607047FC
:10297000836843F00801816070478068C0F3C0003D
:102980007047836843F00401816070478068C0F33A
:1029900080007047092970B54FF003040CD94C43EF
:1029A00007251E3C05FA04F503FA04F3C66826EA77
:1029B00005052B43C3600BE04C43072505FA04F5DE
:1029C00003FA04F3066926EA050545EA03040461EF
:1029D000062A4FF005030DD8013A53431F2202FA8D
:1029E00003F201FA03F1446B24EA020242EA010312
:1029F000436370BD0C2A0DD853431F22233B02FAB8
:102A000003F201FA03F1046B24EA020242EA010331
:102A1000036370BD53431F22413B02FA03F201FAE4
:102A200003F1C46A24EA02021143C16270BD8368E3
:102A300011B143F4801101E023F4801181607047EB
:102A4000044B9A6810B142F4000001E022F4000047
:102A50009860704700240140044B5A6809B1104344
:102A600001E022EA00005860704700BF002004E047
:102A70000368002223F001012C4B016098420260A0
:102A800042608260C26022D02949884229D0294B05
:102A9000984230D02849884237D0284B98423ED0BF
:102AA000274B984206D153F8681C41F4700043F854
:102AB000680C70472349884206D151F87C0C40F0DD
:102AC000706241F87C2C70471F4B984206D153F836
:102AD000042C42F00F0143F8041C70471B49884244
:102AE00006D151F8183C43F0F00041F8180C70473B
:102AF000174B984206D153F82C2C42F4706143F8DE
:102B00002C1C70471349884206D151F8403C43F4CD
:102B1000704041F8400C70470F4B984205D153F874
:102B2000542C42F4702143F8541C704708000240B2
:102B30001C000240300002404400024058000240A5
:102B40006C00024080000240080402401C04024065
:102B500030040240440402405804024070B5066844
:102B60008C680D6A26F4FF4222F070060A6945EA75
:102B700004034C6913438A692343CC6913431C4300
:102B80004B6A44EA03028B6A1A4332430260CB6801
:102B900043600A6882604968C16070BD036811B112
:102BA00043F0010101E023F0010101607047036877
:102BB0000AB1194301E023EA0101016070470000F6
:102BC000C2004CBF014B024B5860704700040240EA
:102BD00000000240C1004CBF034B044B1B68034282
:102BE0000CBF00200120704700040240000002409A
:102BF000C3004CBF014B024B5860704700040240B9
:102C00000000024010B58379002B31D01E4B0168C3
:102C10001C6824EA01021A605C68016824EA010267
:102C20005A60047904F1804101F582321468016828
:102C3000214311609968026821EA020199600268E3
:102C4000D96821EA0201D96041790268102908D1C6
:102C500099680A439A60D968006841EA0002DA601C
:102C600010BD01F1804000F5823319680A4308E085
:102C70000179006801F1804202F582331A6822EA84
:102C800000021A6010BD00BF00040140064B1A6824
:102C9000596910EA010304D010420CBF0020012042
:102CA00070471846704700BF00040140014B58614F
:102CB000704700BF00040140034B1A6802F038015E
:102CC00008431860704700BF00200240044B1A6898
:102CD00022F0100119601A6810431860704700BF95
:102CE00000200240CB78F0B5DA0603F00F0448BFAD
:102CF0008A780B7848BF1443EBB1026800230126A1
:102D000006FA03F60D883540B54210D19E000F2714
:102D100007FA06F704FA06F622EA07023243CE78EB
:102D2000282E01D1456102E0482E08BF056101331C
:102D3000082BE4D102600A88FF2A1FD942680023C9
:102D400003F10805012606FA05F60D883540B5425F
:102D500010D19E000F2707FA06F704FA06F622EABA
:102D600007023243CE78282E08BF4561CE78482E20
:102D700008BF05610133082BE2D14260F0BD8368D2
:102D800019420CBF0020012070470161704741616A
:102D90007047000030B5144A00F44015B5F5401FE7
:102DA000536884B206D1556823F0706325F07065CE
:102DB00055600FE0C20205D5C0F30342032505FAB2
:102DC00002F203E0420D120104FA02F223EA0203C6
:102DD00043F0706321B1400D010104FA01F4234373
:102DE000014A536030BD00BF0000014001F0030202
:102DF00030B592000F2404FA02F400FA02F0074BF7
:102E00008908023153F8215025EA040443F821408F
:102E100053F82140044343F8214030BD00000140F5
:102E200008B50B4B984207D14FF40010012100F078
:102E30008BF94FF4001006E04FF48000012100F000
:102E400083F94FF480000021BDE8084000F07CB910
:102E500000540040F0B58688044687B026F03F0055
:102E60000D46010401A80E0C00F0F2F82C4A03995B
:102E7000B1FBF2F087B23E43A680238823F0010223
:102E800013041A0C22802B68264A93420AD85B004E
:102E9000B1FBF3F0013783B2BFB22784032B98BF95
:102EA000042320E0EE884BF6FF72964204D1032201
:102EB0005343B1FBF3F305E019225343B1FBF3F1A4
:102EC00041F4804399B20A054FF4967208BF41F06D
:102ED0000101504341F400434FF47A7190FBF1F04B
:102EE000421C91B22184A383228891B241F0010354
:102EF0002380208820F4816222F002010B04AA883A
:102F00006989180C41EA0203184380B2208029899C
:102F1000AA8941EA020398B2208107B0F0BD00BF40
:102F200040420F00A0860100038829B16FEA4343A5
:102F30006FEA53418AB201E059044A0C028070479B
:102F4000C9438AB2828270470D4B1A6842F0010071
:102F5000186059680B4A0A405A60186820F084715A
:102F600021F480321A60186820F4802119605A68B0
:102F70004FF41F0122F4FE0058609960704700BFB3
:102F8000001002400000FFF80B4BB0F5803F1A68BC
:102F900022F4803119601A6822F48021196006D069
:102FA000B0F5802F07D1186840F4A02202E019681C
:102FB00041F480321A60704700100240034B5A6897
:102FC00022F47C1210430143596070470010024004
:102FD000014B1860704700BF60004242034B5A68C3
:102FE00022F0030108435860704700BF0010024000
:102FF000024B586800F00C00704700BF0010024000
:10300000034B5A6822F0F00108435860704700BF34
:1030100000100240034B5A6822F4E06108435860F4
:10302000704700BF00100240034B5A6822F4605101
:1030300041EAC0005860704700100240034B5A68D4
:1030400022F4404108435860704700BF001002401E
:1030500010B51F4B5A6802F00C01042903D008294F
:1030600004D01C4A00E01C4A02600FE05C6859680A
:10307000C4F38342941CC90301D4184904E05B687B
:1030800099034CBF134914494C430460104B144935
:103090005C68C4F303128C5C026822FA04F242609A
:1030A0005C68C4F302240C5D22FA04F484605C685A
:1030B000C4F3C224095D22FA01F2C2605B680949C7
:1030C000C3F38133CB5CB2FBF3F2026110BD00BFEE
:1030D0000010024000127A000024F40000093D00B4
:1030E000100000200C000020044B5A6909B1104365
:1030F00001E022EA00005861704700BF0010024062
:10310000044B9A6909B1104301E022EA000098617A
:10311000704700BF00100240044BDA6909B1104348
:1031200001E022EA0000D861704700BF00100240B1
:10313000044BDA6809B1104301E022EA0000D860CC
:10314000704700BF00100240044B1A6909B11043D8
:1031500001E022EA00001861704700BF0010024041
:10316000014B1870704700BF071002404309012B44
:10317000074A01D1136803E0022B0CBF136A536A9C
:1031800000F01F0023FA00F101F00100704700BFBA
:103190000010024007B5002301933120FFF7E6FF3E
:1031A00001994A1C0192019BB3F5A06F01D0002840
:1031B000F3D03120FFF7DAFF003018BF01200EBD39
:1031C00010B54C880B88028823438C8802F4415246
:1031D0002343CC8823430C8923434C8923438C8984
:1031E0002343CC8923431A4393B20380828B22F476
:1031F00000631A04130C8383098A018210BD0388BB
:1032000019B199B241F0400303E023F040010A04F0
:10321000130C0380704781817047808980B27047AA
:10322000038919420CBF002001207047038803F076
:103230008F0202800388CA889BB213434A881343D3
:103240009BB203808A888285064A0B889042038558
:1032500003D002F50063984201D1097A0186012268
:1032600082827047002C0140038C30B523F010029D
:103270001404250C0584038C8288048B23F020031E
:1032800024F4E6452C040D88240C44EA05241D048E
:103290002B0C0D8992B243EA05134D88A4B243EA80
:1032A0000513124D9BB2A84203D005F50065A84254
:1032B00016D14D8923F080039BB243EA05134FF6E4
:1032C000BF751D408B8845EA0315ABB247F2FF3549
:1032D00015408A8945EA8205CA8945EA820292B286
:1032E00082800483C9880187038430BD002C01409B
:1032F000038C30B523F480721404250C0584038CF0
:103300008288848B23F4007324F073052C040D88C9
:10331000240C2C431D042B0C0D8992B243EA052387
:103320004D8843EA0523124D9BB2A84203D005F510
:103330000065A84216D14D8923F400639BB243EA8D
:1033400005234FF6FF351D408B8845EA0325ABB2B8
:1033500044F6FF7515408A8945EA0215CA8945EA8F
:10336000021292B282808483C9888187038430BD2F
:10337000002C0140038C30B523F480521404250C3A
:103380000584038C8288858B94B225F4E64215046B
:103390002A0C0D8823F4005342EA05221D042B0C4D
:1033A0000D8992B243EA05334D8843EA05330A4D4D
:1033B0009BB2A84203D005F50065A84205D18D89CE
:1033C000A404AD0145EA9444A4B284808283C988F0
:1033D000A0F84010038430BD002C0140038819B1CF
:1033E00099B241F0010303E023F001018A05930D36
:1033F00003807047B0F8443029B16FEA43436FEA65
:1034000053418AB201E059044A0CA0F844207047A5
:10341000038B23F4006213041A0C42EA01218BB2DD
:1034200003837047838B23F0080213041A0C1143A3
:1034300081837047838B23F4006213041A0C42EAE1
:1034400001218BB28383704781877047A0F84010B9
:103450007047C9438AB202827047C1F3421310B564
:10346000012401F01F01A34204FA01F101D10C3043
:1034700004E0022B01D1103000E01430036812B1D7
:1034800043EA010201E023EA0102026010BDC9051E
:10349000CA0D828070478088C105C80D704710B57D
:1034A000C1F34214012201F01F03012C02FA03F2BE
:1034B00001D1838903E0022C0CBF038A838A9BB26B
:1034C0000088134082B243B1090A012303FA01F0D4
:1034D00010420CBF0020012010BD184610BD090A83
:1034E000012303FA01F3DA4391B20180704700002F
:1034F00007B5FFF729FD4FF48030FFF745FDFFF7D3
:1035000049FE0128044629D11020FFF7DFFB0220E5
:10351000FFF7D2FB0020FFF773FD0020FFF784FDCB
:103520004FF48060FFF776FD4FF40040FFF786FD13
:103530004FF440304FF4E011FFF740FD2046FFF715
:1035400047FD3920FFF712FE0028FAD00220FFF7CE
:1035500045FDFFF74DFD0828FBD115E01020302375
:103560008DF8070001240C4801A9ADF804308DF84E
:103570000640FFF7B7FB08480021FFF708FC0648A4
:103580002146FFF704FCFEE700F0FCFC03F016FB0D
:10359000FEF7E6F9FEE700BF000C01400A4A0346C9
:1035A00052F82000094A0128094808BF81F00101AA
:1035B00050F8230019B132F82310FFF7E6BB32F8B8
:1035C0002310FFF7E4BB00BFECB00008F4B0000824
:1035D000FCB0000873B5114E3478ECB90920012114
:1035E000FFF78EFD0E480121FFF7D4FB102030239A
:1035F00001258DF8070001A90A48ADF804308DF8BF
:103600000650FFF76FFB28462146FFF7C7FF20460D
:103610002146FFF7C3FF35707CBD00BF503D002041
:1036200000013000000C0140014B1878704700BFCA
:10363000503D0020022801D8FFF7B0BF70470000BE
:1036400070B5274840F22771FFF729FF00282ED0D8
:10365000244D254E2B7832789A421AD9234C204893
:10366000E15CFFF714FF297832784B1CD8B2511E69
:10367000884228701BDA012819D91D4B205C1A7862
:10368000FF23A15C091891FBF3F003FB1011A15477
:103690000DE0134840F227710022FFF7DEFE1548C7
:1036A0000021154A00680B461160FEF74EFD0C48DC
:1036B00040F22771FFF713FF094840F22551FFF749
:1036C000EEFE60B10648FFF7E6FE0C490C4A0870B2
:1036D0001068094A0023BDE87040FEF736BD70BD92
:1036E00000480040603D0020613D0020623D002018
:1036F000583D0020543D00205C3D0020593D0020F5
:10370000A43D002010B5002383420AD0054A148846
:1037100004F08004A4B2002CF8D0CC5C0133948077
:10372000F2E710BD0048004007B502A941F8040DBA
:103730000120FFF7E7FF9DF804000EBD2DE9F047DB
:10374000874B98B01D78002D40F00681012001467E
:10375000FFF7E2FC012140F20560FFF7D1FCC02039
:103760000124ADF8140005A97E488DF817508DF896
:103770001640FFF7B7FA4AF6C871ADF81C104FF0C3
:10378000804006A90226ADF81840ADF81E50ADF8ED
:103790001A50FFF74BFD60224FF0804009A9ADF8A9
:1037A0002420ADF82640ADF82A40ADF82C60FFF794
:1037B0005BFD08214FF08040FFF72AFE4FF40060C8
:1037C0002146FFF749F921462046FFF78DFC664860
:1037D000FFF74EF9654F3020654B802110904FF474
:1037E00040504FF400720D970E93129120234FF426
:1037F000006716900DA95C481392159314970F95C6
:1038000011951795FFF7AAF921465748FFF7C6F912
:103810005848FFF749F803274FF4C02855480DA929
:10382000CDF834808DF838408DF83950CDF83C8093
:1038300010958DF84470FFF765F811214D48224628
:103840003346FFF7A7F811214A4832463346FFF7BF
:10385000A1F811213A4633464648FFF79BF84648FF
:10386000FFF722F84FF460210F9143480DA9CDF8DE
:1038700034808DF838408DF8395010958DF84470AB
:10388000FFF740F83C48394622463346FFF782F8B6
:103890000621394832463346FFF77CF8364807217F
:1038A0003A463346FFF776F832482146FFF74EF89E
:1038B0003048A246A946FFF75BF82E48FFF75DF8AF
:1038C0000028FAD12B48FFF75CF82A48FFF75EF88A
:1038D0000028FAD101212748FFF7A9F80120FFF7B6
:1038E000AFF825480121FFF731F82348FFF740F8EA
:1038F0002148FFF742F80028FAD11F48FFF741F8A6
:103900001D48FFF743F804460028F9D101211A4861
:103910000B25FFF78CF80C228DF8105004A8012518
:103920008DF811208DF812408DF81350FEF788FFA6
:10393000042122462846FEF75EFB104B1049186012
:1039400003238DE81800029403940E486422234652
:10395000FDF74AFF0248057018B0BDE8F08700BFC8
:10396000AE3D002000080140080002404C24014008
:103970006C43002000240140002801402C4400201A
:1039800004B10008D93A0008014B1878704700BF0D
:10399000AE3D002070B50E46FCF70CFD04463046E7
:1039A0000D46FCF707FD4FF03332064BFCF792FE55
:1039B00002460B4620462946FCF78CFEFDF742F8EE
:1039C00070BD00BF3333F33F08B50621012207481D
:1039D000FFF7EDF801210648FEF7C1FF4FF08040E8
:1039E0000121BDE80840FFF7F9BC00BF0800024014
:1039F0000024014007B50420FFF7ECF860B1042073
:103A0000FFF7F6F80D4B0E4802A941F8043D006897
:103A10006A460023FEF799FB0220FFF7DBF860B14E
:103A20000220FFF7E5F8074A054B02A941F8042DEB
:103A300018686A460023FEF788FB0EBD6C43002021
:103A40002C440020CC4300202DE9F0410646B788E5
:103A50001C4BC088B6F80A801F80FCF7ABFC0446FC
:103A600038460D46FCF7A6FC4FF03332164BFCF7F8
:103A700031FE02460B4620462946FCF72BFEFCF79A
:103A8000E1FF1249FDF73CF9114908604046FCF797
:103A900091FC044630890D46FCF78CFC4FF0333224
:103AA000094BFCF717FE02460B4620462946FCF759
:103AB00011FEFCF7C7FF0549FDF722F9054A106022
:103AC000BDE8F081AC3D00203333F33F00809243EA
:103AD000B03D0020A83D0020F0B5002085B00421B5
:103AE000FEF794F84FF47A70FEF742F8FFF76CFF98
:103AF000124B4FF0FF32186869460023FEF751FB66
:103B0000009E002201A80023141819461846B51873
:103B10005D196F880C332D88602B39442844F6D109
:103B20000432CB08C0080C2A63802080EAD101A8A7
:103B300002F0A2FD01A8FFF787FFD9E72C4400207F
:103B400010B504460A480221FFF76AFB0028F9D0A5
:103B500007482146FFF75FFB05480121FFF760FB9F
:103B60000028F9D00248FFF758FBC0B210BD00BFD3
:103B700000380040F8B504460F460D484FF4805118
:103B80001646FFF704F904F01F00FFF7D9FF0024E1
:103B90000546B44205DAA520FFF7D2FF38550134B7
:103BA000F7E703484FF48051FFF7EFF82846F8BDD8
:103BB000000C0140F8B504460F460E484FF4805102
:103BC0001646FFF7E4F804F01F0040F02000FFF76E
:103BD000B7FF00240546B44204DA385DFFF7B0FFB2
:103BE0000134F8E703484FF48051FFF7CEF8284638
:103BF000F8BD00BF000C014007B502AB03F8011D82
:103C000019460122FFF7D6FF0EBD07B501220DF1BF
:103C10000701FFF7AFFF9DF807000EBD38B5084C50
:103C20004FF480512046FFF7B2F8E220FFF788FFFB
:103C30004FF4805105462046FFF7A7F8284638BDC7
:103C4000000C014038B5084C4FF480512046FFF776
:103C50009EF8E120FFF774FF4FF48051054620469F
:103C6000FFF793F8284638BD000C014038B50A4CE0
:103C70004FF480512046FFF78AF86020FFF760FF7D
:103C8000A520FFF75DFF4FF4805105462046FFF762
:103C90007CF8284638BD00BF000C01400528F8B567
:103CA00004460F46164604D90F481049F82204F07E
:103CB00021FD0F484FF48051FFF769F804F0070029
:103CC00040F0A800FFF73CFF00240546B44204DAA8
:103CD000385DFFF735FF0134F8E705484FF48051B0
:103CE000FFF753F82846F8BD3AB1000841B1000883
:103CF000000C0140F8B507460E460C484FF48051C1
:103D0000FFF745F86120FFF71BFF00240546B4428A
:103D100005DAA520FFF714FF38550134F7E703480B
:103D20004FF48051FFF731F82846F8BD000C0140F0
:103D300008B5024B186800B1804708BDB43D0020AB
:103D4000014B1860704700BFB43D00207D2801463C
:103D500003D80520C9B2FFF74FBF7047012805D02F
:103D6000022806D048B90620262104E00620014694
:103D700001E006200E21FFF73FBF7047052838B548
:103D800004460D4607D940F243120948094904F098
:103D9000B1FC012203E001288CBF0122052204F1BD
:103DA0000A00C0B22946BDE83840FFF703BF00BF94
:103DB0003AB1000841B1000820B105484FF48061D4
:103DC000FEF7E3BF02484FF48061FEF7E0BF00BF9B
:103DD000000801402DE9F047DFF8388188B098F8F5
:103DE0000040002C40F08D8000F0A0F80C20012154
:103DF000FFF786F94FF480400121FFF78DF9032684
:103E00004FF48073182540486946ADF800308DF8AE
:103E100003508DF80260FEF765FF4FF42040ADF8C7
:103E20000000694639488DF803508DF80260FEF7AE
:103E300059FF4FF480414FF0040AADF800103348A9
:103E400069464FF4805910278DF803A0FEF74AFF0A
:103E50002E4869464FF40075ADF800908DF8037058
:103E6000FEF740FF284869468DF80260ADF8005023
:103E70008DF803A0FEF736FF09212046FEF7B6FFB6
:103E800001260C220DEB0A008DF8092001958DF812
:103E900008408DF80A60FEF7B5FE0620FFF760F9CE
:103EA00049461A48FEF771FF4FF480691648694683
:103EB000ADF800908DF80370FEF714FF12484946E4
:103EC000FEF765FF07204FF48273ADF81C0003A9CD
:103ED0000F48ADF80E30ADF80C40ADF81040ADF81D
:103EE0001240ADF81440ADF81650ADF81870ADF8AA
:103EF0001A40FFF765F906483146FFF780F988F860
:103F0000006008B0BDE8F08700080140000C0140E7
:103F100000380040B83D002010B5034B1C7800F07D
:103F20001BF8204010BD00BFB83D002037B5094C3C
:103F3000237873B90D2017228DF80500012501A8FB
:103F40008DF804208DF806308DF80750FEF778FCC8
:103F500025703EBDB93D0020014B1878704700BF69
:103F6000B93D002008B54FF40070FEF78FFE012820
:103F700007D1FFF7DDFE4FF40070BDE80840FEF703
:103F800095BE08BD4FF44070FEF750BC70471EF060
:103F9000040F0CBFEFF30880EFF3098000F002B8C4
:103FA000704700002DE9F84FD0F800B00769D0F84D
:103FB00004A0D0F80890D0F80C8046698569C469DF
:103FC0002549264804F006FD25495A46234804F0B1
:103FD00001FD24495246214804F0FCFC22494A468E
:103FE0001E4804F0F7FC214942461C4804F0F2FC4C
:103FF0003A461F49194804F0EDFC1E49324617485D
:1040000004F0E8FC1C492A46144804F0E3FC1B4970
:104010002246124804F0DEFC194B1A491A680F4870
:1040200004F0D8FC1848194902680C4804F0D2FC86
:1040300017490A480A68174904F0CCFC164A174F7A
:1040400012681749054804F0C5FC3A680348154949
:1040500004F0C0FCFEE700BF58B100082937000893
:104060006EB1000877B1000880B1000889B100087E
:1040700092B100089CB10008A5B10008AEB10008DB
:1040800038ED00E0B8B1000828ED00E0C3B1000849
:104090002CED00E0CEB1000830ED00E03CED00E09A
:1040A000D9B10008E4B10008FEE7FEE7FEE770477B
:1040B000FFF7A0BC704700F013BE00F011BE00F087
:1040C000E9BD00F0E7BDFFF74DBFFFF7B9BA00004B
:1040D00008B504480121FFF7BCF9034B1A68501CCE
:1040E000186008BD002C01408044002001F016B982
:1040F00001F0C6B97047000001480249FEF720BF31
:1041000000580040FFFF0010F0B5404E89B03478F1
:10411000002C79D109200121FEF7F2FF06200121B0
:10412000FEF7FAFF1820032140F203338DF8030055
:104130008DF8021036486946ADF80030FEF7D2FD22
:1041400034480121FEF726FE40F2FF15324801A94E
:10415000ADF80850ADF80440ADF80A40ADF806409F
:10416000FFF764F82D4801A9ADF80850ADF80440F8
:104170000125ADF80A40ADF80640FFF757F8602278
:10418000264804A9ADF81020ADF81250ADF816403D
:10419000ADF81840FFF7ACF820480821FFF742F9C6
:1041A0001E4804A9FFF7E6F81C480821FFF742F96A
:1041B000194804A9FFF79CF817480821FFF732F9BE
:1041C000154804A9FFF7D6F813480821FFF732F97C
:1041D00011482946FFF702F910482946FFF7FEF873
:1041E0000D482946FFF706F90C482946FFF702F962
:1041F0004FF480502946FEF72FFC4FF4005029461B
:10420000FEF72AFC2F46357009B0F0BDBA3D0020FC
:10421000000C014000081A000004004000080040A3
:1042200003280FD8DFE800F00204060A064802E07F
:10423000054804E00548C909FFF708B90348C9095A
:10424000FFF702B9704700BF0004004000080040BB
:1042500038B500240B4B4FF40041E5580434284690
:10426000FFF7DEFF0A20FDF783FC00212846FFF759
:10427000D7FF3220FDF77CFC102CEBD102480078F0
:1042800038BD00BFF0B10008BA3D0020054B1A78D8
:1042900032B90549054A086069200121107019707A
:1042A000704700BFBC3D0020C03D0020BB3D00204A
:1042B000F0B5064687B00D461046314614461F46F7
:1042C000FCF7BCFE20B920462946FCF7D5FEA8B174
:1042D0003046FCF781F8CDE900012846FCF77CF870
:1042E000CDE902012046FCF777F83A46CDE9040112
:1042F0000448054904F06EFB002000E0012007B0EF
:10430000F0BD00BF4D6E000810B20008034A04491A
:10431000034609781068192200F068BCC03D0020EF
:10432000BB3D002007B5064B0322197801900548D4
:10433000009202231A22006800F062FC0EBD00BF4A
:10434000BB3D0020C03D002013B5074B074C0220A9
:10435000074A197800900194106804231B2200F08A
:10436000F9FB20781CBD00BFBB3D0020C43D0020F0
:10437000C03D002008B5FFF7E7FF032803D8034B33
:1043800053F8200008BD024808BD00BF00B2000875
:104390000000FA3C07B5064B022219780190054847
:1043A000009204231B22006800F02AFC0EBD00BF0F
:1043B000BB3D0020C03D002007B5054B1B221978EE
:1043C000009004480723006800F043FC0EBD00BFC6
:1043D000BB3D0020C03D002007B5054B1B221978CE
:1043E000009004480623006800F033FC0EBD00BFB7
:1043F000BB3D0020C03D002007B5054B1B221978AE
:10440000009004480523006800F023FC0EBD00BFA7
:10441000BB3D0020C03D002007B5054B1C2219788C
:10442000009004480723006800F013FC0EBD00BF95
:10443000BB3D0020C03D002007B5054B1C2219786C
:10444000009004480623006800F003FC0EBD00BF86
:10445000BB3D0020C03D002007B5054B1C2219784C
:10446000009004480523006800F0F3FB0EBD00BF78
:10447000BB3D0020C03D002013B5074B074C022078
:10448000074A197800900194106804231C2200F058
:1044900061FB20781CBD00BFBB3D0020C43D002057
:1044A000C03D002008B5FFF7E7FF032803D8034B02
:1044B00053F8200008BD024808BD00BF9CB20008A8
:1044C0000000FA3C07B5064B022219780190054816
:1044D000009204231C22006800F092FB0EBD00BF76
:1044E000BB3D0020C03D002007B5054B37221978A1
:1044F000009004480123006800F0ABFB0EBD00BF34
:10450000BB3D0020C03D0020034A04490346097812
:104510001068382200F06ABBC03D0020BB3D00207F
:104520002DE9F341184C1D46184B804618480F469C
:104530001978009416460E233B22006800F0DEFA3C
:104540002278617841EA0223A8F80030A078E27866
:1045500042EA002139802079637943EA00223280DF
:10456000217A607A40EA01232B80A27AE17A089BC3
:1045700041EA02201880227B617B099B41EA0220EC
:104580001880BDE8FC8100BFC43D0020BB3D002079
:10459000C03D00202DE9F04F8FB0FFF783FF0546A7
:1045A000FFF7E8FE142480460DAF0DF136060BA888
:1045B0000DF12E010CAA0DF1320300970196FFF7C1
:1045C000AFFF0220FDF7D4FA013CEDD1BDF9320076
:1045D000FCF742FB4146FCF793FB8346BDF83000F5
:1045E000BDF82C20BDF82E300790012005920693CF
:1045F000BDF834A0BDF83690FFF7DEFE0120FFF7CE
:10460000EBFE0120FFF7F8FE0120FFF705FF012078
:10461000FFF712FF0120FFF71FFF0A20FDF7A8FA9E
:104620000CAA0DF132030DF12E01009701960BA893
:10463000FFF776FFBDF93200FCF70EFB4146FCF7B1
:104640005FFBBDF834C0BDF82E20BDF83030014608
:104650002046CDF80CC0089209930491BDF836703D
:10466000BDF82C60FFF7A8FE2046FFF7B5FE2046F8
:10467000FFF7C2FE2046FFF7CFFE2046FFF7DCFE25
:104680002046FFF7E9FE04985946FCF72FFA4C49FB
:1046900002464C4B4C48FFF70BFEDDF80CC008B946
:1046A00000208AE00FFA8CF0FCF7D6FA4146FCF7BE
:1046B00027FB04460FFA8AF0FCF7CEFA4146FCF7D6
:1046C0001FFB01462046FCF711FA40490246404BC9
:1046D0004048FFF7EDFD0028E2D038B2FCF7BCFA05
:1046E0004146FCF70DFB04460FFA89F0FCF7B4FADB
:1046F0004146FCF705FB01462046FCF7F7F9304937
:104700000246354B3048FFF7D3FD0028C8D030B201
:10471000FCF7A2FA2946FCF7F3FA0599044608B219
:10472000FCF79AFA2946FCF7EBFA01462046FCF71B
:10473000DDF92A4902462A4B2A48FFF7B9FD00282D
:10474000AED0089C20B2FCF787FA2946FCF7D8FACD
:10475000069A044610B2FCF77FFA2946FCF7D0FA15
:1047600001462046FCF7C2F91C4902461E4B1D4873
:10477000FFF79EFD002893D0099B18B2FCF76CFA56
:104780002946FCF7BDFA0446079800B2FCF764FA24
:104790002946FCF7B5FA01462046FCF7A7F90F4970
:1047A0000246124B0F48FFF783FD00283FF478AF15
:1047B0000F48104904F00EF901200FB0BDE8F08F4A
:1047C0000000D24258B2000800002041000020C181
:1047D0005FB200080000D2C266B200083333733FF4
:1047E0006DB200089A99993E73B2000879B2000838
:1047F0004D6E00087FB2000807B5054B0120054A41
:1048000019780090106807236B2200F022FA0EBD81
:10481000BB3D0020C03D002007B5054B6B22197839
:10482000009004480623006800F013FA0EBD00BF94
:10483000BB3D0020C03D002007B5064B80F00100C5
:10484000054A19780090106803236B2200F001FAE2
:104850000EBD00BFBB3D0020C03D002007B5064B8C
:104860000322197801900548009202236B22006808
:1048700000F0C6F90EBD00BFBB3D0020C03D0020CA
:1048800013B5064B064C1978064A0623009301948B
:104890001068752200F05EF920781CBDBB3D002039
:1048A000C43D0020C03D002008B5FFF7E9FFB0F18E
:1048B00034035842584108BD82B032210191019B16
:1048C00013B10198411EF9E702B07047824A73B5EF
:1048D000904240F0BB80FEF7A3FA4FF40010012194
:1048E000FEF71AFC80247D4801A903251426ADF8A3
:1048F00004408DF806508DF80760FEF7F3F940206C
:10490000ADF8040001A97548FEF7ECF9734821469B
:10491000FEF73BFA71488021FEF731FAD8B96F48AB
:104920004021FEF732FA4CF251346C484021FEF738
:1049300026FA08B9013CF8D1FFF7BEFF40216748CD
:10494000FEF725FAFFF7B8FF64484021FEF71DFA8D
:10495000FFF7B2FFDEE761484021FEF716FAFFF7E6
:10496000ABFF5E488021FEF712FAFFF7A5FF5B4818
:104970008021FEF70CFAFFF79FFF58488021FEF7D1
:1049800004FA56484021FEF700FA4CF251345348DD
:104990004021FEF7F4F908B9013CF8D14CF2513549
:1049A00080214E48FEF7EBF9012801D1013DF7D1F6
:1049B000494E304600F0B8FA328B02F020018BB23B
:1049C0003BB130460121FEF7AFFA30460021FEF739
:1049D000ABFA1020012400250C268DF8040001A854
:1049E0008DF805608DF806508DF80740FDF728FF1B
:1049F000112201A88DF804208DF805608DF806506D
:104A00008DF80740FDF71CFF202101A88DF8041048
:104A10008DF805608DF806508DF80740FDF710FF02
:104A20002F4802212246FEF7C2F82E4802212246D4
:104A3000FEF7BDF8294620460322FDF7DCFA2A4B93
:104A40000146196000293FD1012044E027498842EE
:104A500040D100F069FA0E20012400250C268DF8C3
:104A6000040001A88DF805608DF806508DF8074008
:104A7000FDF7E6FE0F2301A88DF804308DF80560E0
:104A80008DF806508DF80740FDF7DAFE222201A8C6
:104A90008DF804208DF805608DF806508DF80740DC
:104AA000FDF7CEFE124802212246FEF780F811489B
:104AB00002212246FEF77BF8294620460322FDF715
:104AC0009AFA0D4B0146BCE729462A462B46FDF7CC
:104AD000B2FAB9E700207CBD00540040000C014050
:104AE0006C00024080000240344400200058004026
:104AF00044000240580002403C4400207FB5FF2A99
:104B000005460C461E468DF80F200ED16400052088
:104B1000E4B201900023009428460899324600F040
:104B200023FB003018BF01200CE04B00D9B2052256
:104B3000009101920DF10F010122002300F02AF9EA
:104B40000028E3D104B070BD07B500930123FFF73F
:104B5000D5FF0EBD37B51D460DF107039DF8184072
:104B6000FFF7F2FF70B101222B1B02FA04F4591C6B
:104B7000013C04FA01F49DF80730079A1C4044FAFE
:104B800001F111703EBD000073B5FF2A0546069C79
:104B900019D0102B01D823B300E010231248027063
:104BA00000229A4206DA0132A61816F8016C0E4865
:104BB0001654F6E74A00D1B20520009101900A4947
:104BC00028465A1C06E04900CAB20521009201910C
:104BD0001A462146002300F0DDF8003018BF0120FE
:104BE00000E018467CBD00BFD23D00201FB504ACDC
:104BF00004F8013D00940123FFF7C6FF04B010BD87
:104C00002DE9F3411D460DF1070380460F46164678
:104C10009DF82040FFF798FFC8B101232D1B03FA30
:104C200004F49DF82410681C01FA00F2013C04FA17
:104C300000F49DF80730D5B223EA04032C40234347
:104C40004046394632468DF80730FFF7CFFFBDE8C2
:104C5000FC812DE9F3411C460DF107031646804601
:104C60000F46FFF771FF9DF8202001239DF80750A4
:104C700003FA04F312B12B43DBB201E025EA03038C
:104C80004046394632468DF80730FFF7AFFFBDE8A2
:104C9000FC81000010B54FF40010FDF79BFF50B1F0
:104CA0004FF40010FDF7A4FF0C4B002118680A46D2
:104CB0000B46FDF7C0F94FF00070FDF78BFF60B1B8
:104CC0004FF00070FDF794FF0448002100680A4689
:104CD0000B46BDE81040FDF7AEB910BD34440020CE
:104CE00010B54FF40050FDF775FF50B14FF4005070
:104CF000FDF77EFF0C4B002118680A460B46FDF7B6
:104D00009AF94FF40030FDF765FF60B14FF40030C1
:104D1000FDF76EFF0448002100680A460B46BDE817
:104D20001040FDF788B910BD3C44002010B5144C6C
:104D3000102361601349A3608842E2600BD11031F7
:104D4000216011480021FDF729FF0F482146FDF79A
:104D500005FF0D480FE00D48002120600C48FDF7CD
:104D60001DFF0B482146FDF7F9FE094802210122EB
:104D7000FDF71DFF06480121BDE81040FDF70EBFFD
:104D800040440020005400406C0002401058004095
:104D9000440002402DE9F341002500950195B0F84B
:104DA0000480012B1FFA88F848F4807804468C466A
:104DB00016469DF82070A0F8048062D14FF6FF736C
:104DC0000193FFF7B3FFA28890B240F40061A18085
:104DD00023889AB242F480702080A18ACB0706D43F
:104DE0000198411E01910028F7D1002085E0444A36
:104DF0004FF6FF7307F0FE070193177010782082BB
:104E0000A18A01F002039AB22AB9019B5A1E0192AB
:104E1000002BF5D1E9E7208B3A4B81B29C420091FF
:104E20000DD1394800210B4605220068FDF7B9F97C
:104E300036480021FDF7B2FE4FF400100CE0344A72
:104E400000210B4610680522FDF7ABF9314800211F
:104E5000FDF7A4FE4FF40050FDF7B2FEA18A01F069
:104E600004039AB2002AF9D0208881B241F4007379
:104E70002380228802F4007081B20029F9D1012038
:104E80003BE0838807F0FE0798B240F40071A180F0
:104E9000A288214993B243F48060A08019481F4A38
:104EA00084420CBF1E481F48154B0D60C2F800C05D
:104EB0001F700660218841F288308AB2099942F455
:104EC0008073414323800191218801F4807293B261
:104ED0004BB1019838B10198411EF4E7019840B1F7
:104EE000019A531E0193218B01F0020293B2002B11
:104EF000F4D10199081C18BF0120BDE8FC8100BF56
:104F00006C44002000540040344400206C000240F7
:104F10003C44002044000240E43D00203044002096
:104F20007444002070440020F0B5012187B006468B
:104F30000820FEF7E5F801200146FEF7D5F8644B9E
:104F40009E423BD101214FF40010FEF7E5F84025C9
:104F50001C23032769465F488DF80330ADF80050E5
:104F60008DF80270FDF7BEFE8020ADF800006946A6
:104F70005848FDF7B7FE01214FF40010FEF7E4F8A2
:104F800000214FF40010FEF7DFF800241F21052256
:104F900001A801258DF804108DF805208DF8064034
:104FA0008DF807502027FDF74BFC062301A88DF84C
:104FB00004708DF80530FDF743FC24E04FF48000C9
:104FC0000121FEF7A9F84FF4806003211C22ADF8FF
:104FD00000008DF802103F4869468DF803204FF419
:104FE0000064FDF77FFE3B486946ADF80040FDF7E1
:104FF00079FE4FF480000121FEF7A6F84FF48000FF
:105000000021FEF7A1F84FF48044334FADF814406F
:1050100006AC44F8107D2E4F28214BF6FF704FF45C
:1050200080620025ADF80E00ADF81010384621461C
:10503000ADF81220ADF80C50FDF70CFF30232146DF
:105040002648ADF81030FDF705FFBE42244C1DD1B7
:105050002448FDF70DFD244B10204FF6FF718022F0
:1050600084E82800A0604FF44053E1601D482146C9
:10507000626163622561A561E5612562A562FDF754
:105080006DFD1A48FDF7F4FC18481CE01848FDF7C0
:10509000EFFC184B10204FF6FF71802284E82800A7
:1050A000A0604FF44053E1601148214662616362A1
:1050B0002561A561E5612562A562FDF74FFD0E48FA
:1050C000FDF7D6FC0C482146FDF748FD07B0F0BDC2
:1050D00000540040000C0140801A060000580040B7
:1050E000404400206C000240105400408000024008
:1050F000440002401058004058000240F8B50546F0
:105100000F4616461BB9BDE8F840FFF70FBE114C1D
:10511000114B616000219842A160E2600AD1103316
:105120000E482360FDF73AFD0C482146FDF716FDB9
:105130000A4809E00A4820600A48FDF72FFD09489F
:105140002146FDF70BFD07480121BDE8F840FDF7BA
:1051500025BD00BF404400200054004080000240B4
:1051600010580040580002402DE9F3414FF0000C68
:10517000CDF800C0CDF804C0B0F804C0012B1FFA70
:105180008CFC4CF4807C0446884616469DF82070C2
:10519000099DA0F804C06AD1FFF7B0FFA28893B2BE
:1051A00043F48050A080A1884FF6FF708AB242F489
:1051B0000063A380019021888AB242F48073238027
:1051C000A08AC20706D401994A1E01920029F7D18C
:1051D00000208DE0474A4FF6FF7147F0010701912B
:1051E000177013782382A08A00F002018AB22AB9CC
:1051F000019B581E0190002BF5D1E9E7238B3E4916
:1052000098B28C420090284611D1FBF7C3F8FBF707
:10521000F9FB0246394800210B460068FCF7C1FF44
:1052200037480021FDF7BAFC4FF0007010E0FBF7A3
:10523000B1F8FBF7E7FB334B0021024618680B4639
:10524000FCF7AFFF30480021FDF7A8FC4FF4003019
:10525000FDF7B6FC228891B241F4007323802088C8
:1052600000F4007291B20029F9D1012040E0838856
:1052700098B240F40071A180A288012193B2234A20
:1052800043F48060A0800F4311601B49204B8C4287
:105290000CBF204920491748C3F8008007700E60F2
:1052A00041F2883122884D4393B243F480702080CC
:1052B0000195228802F4807398B250B1019941B1EE
:1052C0000198411E0191F4E7019941B1019A531EE1
:1052D0000193228B02F0020398B20028F4D12288B5
:1052E00093B243F4806020800199081C18BF01200C
:1052F000BDE8FC816C440020005400403444002090
:10530000800002403C44002058000240E43D002060
:1053100038440020744400207044002013B500235A
:105320004F4A00930193918A88B20090118B88B202
:1053300001900099C90704D54A4801781182009369
:105340000193019BDB0740F18A80009A900730D5DA
:1053500045480168B9B9454B454A19701978106834
:105360003F4A405C01311082C8B21870414B196845
:10537000481E18601B68CBB9918821F48060030433
:10538000190C918012E03C4B00223A481A700168D7
:1053900001290BD1324A138823F4806001040B0CDD
:1053A0001380108881B241F40073138000220092B0
:1053B0000192009800F08403802B1AD12D4B1968BC
:1053C000A1B12A492A4C08782268145C244A013089
:1053D000C0B2148208701968481E18601B682BB987
:1053E000918821F480600304190C918000220092BE
:1053F0000192009800F08403842B0ED118490A888A
:1054000090B240F400730B808A8822F40070030489
:105410001A0C8A80002100910191009841061ED546
:10542000154A0F4B1548117800681C8A4454013105
:10543000C8B210700F4A1168481E10601268012A25
:105440000AD1198821F480600204110C198018888F
:1054500082B242F4007119800023009301931CBDB5
:10546000005400406C440020E43D0020E33D002057
:105470003044002074440020E83D002038440020DF
:1054800082B000211A4A0191938A98B20190019B3F
:10549000580506D5908A20F480631804030C938283
:1054A000019101998A0508D5114A908A20F48063F8
:1054B0001904080C908200220192019BDB0508D59B
:1054C0000B49888A20F480721304180C888200210A
:1054D0000191019A100508D50548838A23F40061DB
:1054E0000A04130C83820020019002B0704700BFB1
:1054F0000054004013B50C4B0C4C0D481978009427
:1055000000680A220323FFF7F9FA60B121784829DD
:1055100008D16278342A05D1A378B3F13301484227
:10552000484100E000201CBD7F4400207944002059
:10553000EC3D0020824213B5044601DB8A4209DDBE
:105540008DE8060004481A460449234603F042FA4F
:10555000002000E001201CBD4D6E0008ACB2000828
:10556000044A054943010978106803F0E003012269
:10557000FFF73CBBEC3D00207F44002010B5084CF9
:10558000227862B90749084B08601E211970702300
:10559000FFF72CFB0320FFF7E3FF0120207010BD75
:1055A000E93D0020EC3D00207F44002038B506494D
:1055B000064C074B05460978186802222378FFF746
:1055C00015FB257038BD00BF7F44002078440020C3
:1055D000EC3D00202DE9F743144E154D154C0623E4
:1055E0008146884617462978032200943068FFF7E1
:1055F00085FA114B1B78012B04D1306829780222DF
:10560000FFF7F4FA2278607840EA0221A9F8001046
:105610002279637943EA0220A8F80000A178E278B1
:1056200042EA01233B80BDE8FE8300BFEC3D002041
:105630007F440020794400207844002030B5434D59
:1056400087B0434C05AB21782868009300220323E0
:10565000FFF754FA08B9002475E00420FFF780FF33
:105660001123217800222868FFF7C0FA0120FFF7F4
:105670009DFFFA20FCF77CFA02A80DF10A0103AAAB
:10568000FFF7A8FF1223217800222868FFF7AEFA5F
:105690000120FFF78BFFFA20FCF76AFA0DF10E00EC
:1056A00004A90DF11202FFF795FF4FF4CC704FF4EF
:1056B0001971BDF90820274BFFF73CFF08B90024FA
:1056C00035E04FF4CC704FF41971BDF90A20224B2C
:1056D000FFF730FF0028F2D04FF4BE7040F23A21BD
:1056E000BDF90C201D4BFFF725FF0028E7D01C4813
:1056F0001C49BDF90E201C4BFFF71CFF0028DED013
:1057000017481849BDF91020184BFFF713FF002860
:10571000D5D017481749BDF91220174BFFF70AFFDC
:105720000028CCD01548164903F054F90124084844
:1057300005AA064B01780092186800220323FFF7A0
:1057400023FA002887D0204607B030BDEC3D00206A
:105750007F440020ECB20008F2B20008F8B2000862
:105760009CFDFFFF68FEFFFFFEB2000804B30008C7
:10577000C6FDFFFF84FEFFFF0AB300084D6E000860
:1057800010B30008F0B5064687B00D461046314606
:1057900014461F46FBF752FC20B920462946FBF76A
:1057A0006BFCA8B13046FAF717FECDE90001284698
:1057B000FAF712FECDE902012046FAF70DFE3A464D
:1057C000CDE904010448054903F004F9002000E094
:1057D000012007B0F0BD00BF4D6E00082BB30008DC
:1057E0002DE9F8430C46002840D000293ED0DFF8D0
:1057F00088E0C117BEF80460BEF8003084FB06677D
:10580000320A4FEAC33842EA07664FF000093F12F6
:1058100016EB080247EB09034343BEF8065002FBB0
:105820000136A0FB020184FB05457118400DBEF84E
:10583000026040EAC1224B15E10941EA45603604A5
:105840000027E911801941EB0701121A63EB0103EC
:10585000920A42EA83509912FAF7E4FD0022054BBE
:10586000FAF738FFFBF7EEF8BDE8F8830020BDE853
:10587000F88300BF0000A940F23D002008B598B1B0
:105880000A4B598980FB0101820C42EA81324FF4B4
:105890007A408B140021801841EB0301FBF7F2F9E9
:1058A0000349FBF7E1FA08BD002008BDF23D0020E6
:1058B0000000484518B1024B19890A02801A704746
:1058C000F23D0020034A0449034609781068FF228C
:1058D000FFF78CB9003E0020F03D002030B50E4CA3
:1058E0000E4D85B02978FF2200232068FFF77EF94E
:1058F00003AB29780093FF2203232068FFF7FEF80B
:105900009DF80D009DF80C1002029DF80E3042EA41
:105910000140184305B030BD003E0020F03D00209E
:1059200070B51C4B187808B9002070BD4820FFF7EF
:10593000C9FF6420FCF71CF94820FFF7CFFF06469B
:105940005820FFF7BFFF6420FCF712F95820FFF73B
:10595000C5FFFFF7AFFF0546FFF790FF2946044656
:105960003046FFF73DFF0C4902460C4B0C48FFF751
:1059700009FF0028D8D00B480B4922460B4BFFF7F4
:1059800001FF0028D0D00A490A4803F023F801207B
:1059900070BD00BF043E00200080894472B300083F
:1059A0000000E1430000A0C1000070427BB300088A
:1059B00087B300084D6E00087FB500240F4D104ED0
:1059C000A4F15E0328683178FF22DBB2FFF70EF9FD
:1059D00078B103A831780090FF2202232868FFF7EE
:1059E0008DF89DF80C209DF80D10064B41EA02221F
:1059F000E25202340C2CE1D104B070BD003E002014
:105A0000F03D0020F23D0020034B0449186809785E
:105A1000FF221E23FFF7EAB8003E0020F03D0020E1
:105A200010B50A4C23787BB90949772208600948E8
:105A30000270FFF7E9FF0520FCF79AF8FFF7BCFFBB
:105A400018B10120207010BD012010BD043E0020BF
:105A5000003E0020F03D00207320704700B589B063
:105A6000124B186881686846884702460028F7D1BB
:105A70009DF801300E49180951F8200020B16946FF
:105A80001346FCF7D8FA03E00A4B1A68501C18605A
:105A90009DF80110084B0A0953F822000028DFD0B6
:105AA00053F8221068468847DAE700BF3400002028
:105AB000083E0020543E0020583E002000B589B02A
:105AC000074B694618684FF0FF320023FCF769FB6B
:105AD0000128F5D10348016868464A689047EFE716
